:020000040800F2
:1000000090070020B5010008233600084930000899
:10001000213600087B1500085D3B00080000000049
:100020000000000000000000000000007D38000813
:100030007D15000800000000633600087F380008C6
:10004000CF010008CF010008CF010008CF01000850
:10005000CF010008CF010008CF010008CF01000840
:10006000CF010008CF010008CF010008CF01000830
:10007000CF010008CF010008CF010008CF01000820
:10008000CF010008CF010008CF010008CF01000810
:10009000CF010008CF010008CF010008CF01000800
:1000A000CF010008CF010008CF010008CF010008F0
:1000B000CF010008CF010008CF010008CF010008E0
:1000C000CF010008CF010008CF010008CF010008D0
:1000D000CF010008513B0008CF010008CF01000804
:1000E000CF010008CF010008CF01000800F002F89E
:1000F00000F050F80AA090E8000C82448344AAF172
:100100000107DA4501D100F045F8AFF2090EBAE86F
:100110000F0013F0010F18BFFB1A43F0010318473B
:10012000B4480000D4480000103A24BF78C878C111
:10013000FAD8520724BF30C830C144BF04680C60ED
:10014000704700000023002400250026103A28BF35
:1001500078C1FBD8520728BF30C148BF0B60704739
:10016000662904F04883642900F0A280782900F011
:10017000DB80732900F06D84002070471FB500F00C
:100180007FFC04000020002104F03AF8E0601FBD6D
:1001900010B510BD00F090FD1146FFF7EFFF03F022
:1001A00085FF00F0AEFD03B4FFF7F2FF03BC03F0E0
:1001B0006CFF00000948804709480047FEE7FEE75A
:1001C000FEE7FEE7FEE7FEE7FEE7FEE7FEE7FEE707
:1001D00004480549054A064B7047000003390008EA
:1001E000ED000008900100209007002090030020FF
:1001F00090030020704700000FB4044910B503AA13
:10020000029800F02BFC10BC5DF814FB00000020ED
:1002100070B5044685690068C10601D5302600E046
:100220002026C00707D070BDD4E901213046904791
:10023000206A401C20626D1EF6D570BD70B5044664
:1002400085690078C00707D170BDD4E9012120205D
:100250009047206A401C20626D1EF6D570BD70B5B7
:100260000C460546012A05D02878800600D5EA69A3
:10027000002302E0012305E05B1C934202D2E05C14
:100280000028F9D1A869E618C01AA861286A18449C
:1002900028622846FFF7BCFF04E0D5E9012114F8E5
:1002A000010B9047B442F8D32846FFF7C7FF70BD53
:1002B0002DE9F0410646002410687529314616A53F
:1002C00010D0AFF30080002802DA404213A507E007
:1002D00031688A0701D512A502E0490704D511A5A6
:1002E000012401E0AFF3008000210A2206F1240777
:1002F00009E0B0FBF2FCB0FBF2F302FB1C00303073
:1003000078541846491C0028F3D123462A46304623
:10031000BDE8F04100F023B9000000002D0000000E
:100320002B0000002000000070B504460D46214659
:100330001068AFF300802188090502D50F4A7A447E
:1003400002E00E4A7A440E32002104F1240305E053
:1003500000F00F060009965D5E54491C0028F7D195
:1003600020780023000704D5702D02D009B10223A4
:1003700011322046BDE8704000F0F1B8C2450000DF
:100380002DE9F05F894604464FF0000ADFF874B1AA
:10039000FB44C0F820A02046E1688847002874D0BC
:1003A000252806D0D4E901219047206A401C20620C
:1003B000F1E700265F462046E16888472028054689
:1003C00007DB312D05D2781910F8200C08B106434F
:1003D000F1E7B00701D526F00406C4F81CA00027F9
:1003E000C4F818A02A2D09D0284603F047FE38B3D8
:1003F00004EB8708303DC8F8185019E059F8041B81
:10040000204604EB87029161E1688847012F054689
:1004100018D1E069002820DA26F020061DE0D8F87F
:10042000180000EB800005EB40003038C8F81800D9
:100430002046E1688847054603F020FE0028EED1FB
:10044000012F0AD02E2D08D12046E16888477F1C55
:100450000546022F46F02006C4DBA069002803DA17
:10046000404246F00106A061F00701D026F01006D8
:100470006C2D0BD0682D09D04C2D39D06A2D35D07C
:10048000742D35D07A2D33D016E038E0E1682F4650
:1004900020468847B842054609D16C2F26D04FF434
:1004A0008060E168064320468847054604E06C2FDB
:1004B0001AD04FF4807006430DB3A5F141001928FE
:1004C00002D8203546F400664A4629462046266072
:1004D0004E46FFF745FE80B101280BD0F61D26F0F1
:1004E000070000F1080956E74020E4E78020D8E73C
:1004F0000020D6E706F104094DE7284652E7206AB6
:10050000BDE8F09F984500004FF0000200B513468B
:1005100094469646203922BFA0E80C50A0E80C5023
:10052000B1F12001BFF4F7AF090728BFA0E80C50D4
:1005300048BF0CC05DF804EB890028BF40F8042BCD
:1005400008BF704748BF20F8022B11F0804F18BF3A
:1005500000F8012B704770477047704770472DE9CE
:10056000F0470D4699469246044600F1240801687A
:10057000880604D5E06921F01001216000E0012027
:10058000A84201DD471B00E00027A1697A1902EBB0
:100590000900081AA0612078C00602D42046FFF79F
:1005A00037FE002608E0D4E901211AF8060090473A
:1005B000206A401C761C20624E45F4DB2078C00681
:1005C0000AD52046FFF724FE06E0D4E901213020B9
:1005D0009047206A401C2062381EA7F10107F4DC16
:1005E00007E0D4E9012118F805009047206A401C73
:1005F0002062281EA5F10105F3DC2046FFF71EFE50
:100600002078000602D50220BDE8F0870120FBE734
:1006100070472DE9FF4F0C461E464FF0FF378BB059
:10062000D2E90001DDF860800A908A46C1F30A55DC
:1006300005B93D46002108464FF00000BAF1000F11
:1006400000F4400005DA00EB80004FF4400101EABD
:1006500050004FEA9059B9F1010F00DDB9460A98F0
:1006600050EA4A000ED044F61050A5F2FF3545433B
:100670002F14B8F1000F1ED07542291E1EDDC9F1DE
:1006800000021CE0B8F1010F4FF0000001D0302152
:1006900003E0F24305E02154401CB042FBDB30464E
:1006A0000022002121540B99C1F80880C1E90020E3
:1006B0000FB0BDE8F08FBD1B6D1CDEE74A4600DAC7
:1006C000694206A800F07EFA06AB93E8070003AB88
:1006D00083E8070050460A9900F05CFB8DE80700AC
:1006E000A0F500501F3800900398002D0ADD42F25B
:1006F0001F014A460844002303A90390684600F0FE
:10070000C5FD09E0A0F500504A461F38002303A9A3
:100710000390684600F0CFFD8DE807000004000C50
:1007200003D04FF0FF30410800E01046B8F1000F51
:1007300003D00022009215461EE0751E05D400F07D
:10074000A3F9303262556D1EF9D5B3460122084334
:1007500002D000227F1C04E02078302801D1002242
:100760007F1E002A099784D01DE0112D07DA00F0C2
:100770008BF9303262556D1C50EA0102F5D1084305
:1007800002D00098C8B10EE00021681E05E0235C8D
:10079000625C63542254401E491C8142F7DBAB4625
:1007A000A81B401E0990002004F80B000B98099A22
:1007B000C0F80880C0E9002B7AE711264FF0000846
:1007C00057E72DE9F04F88460446D21D22F0070175
:1007D00091B0D1E90001CDE90A0103F02BFC0246FA
:1007E0000B98C00F01D02D2007E02068810701D5AC
:1007F0002B2002E0202101EAC000032A099001D049
:10080000072A05DB03464146204600F09BF90BE131
:100810002078800601D5E06900E00620B8F1650F78
:10082000814606D0B8F1660F18D0B8F1670F70D1C5
:1008300031E00020B9F1110F009001DB112301E03C
:1008400009F101030AAA01A90CA8FFF7E2FEDDE9FC
:100850000C70002609F10105834647E001204B4654
:1008600000904FF000470AAA01A90CA8FFF7D1FE9B
:10087000DDE90DB00C995D46002610B909F10100C3
:100880000D18B9EB050003D4C0F1FF3609F10105DD
:10089000A5EB09002BE0B9F1010F01DA4FF00109D6
:1008A0000020B9F1110F0090484601DD112300E04E
:1008B00003460AAA01A90CA8FFF7ABFEDDE90C70FC
:1008C0004D4600268346207800070AD4AB4500DA5F
:1008D0005D4601A8012D04DD411911F8011C3029E4
:1008E00007D04F4502DA17F1040F04DA01208246DF
:1008F0000FE06D1EEEE7002F02DCED1B3E4403E02F
:10090000781CA84200DD7D1CB81B00F1010A4FF0E5
:1009100000472078000703D4AA4501DB4FF0FF3AD7
:100920000021B7F1004F0DF143088DF8431024D09A
:1009300002202B23002F01DA7F422D230A21021EE1
:10094000A0F1010000DC5FB197FBF1FC97FBF1F235
:1009500001FB1C7C17460CF1300C08F801CDEEE7CA
:10096000A8F1010003702188090501D5452100E0A7
:100970006521A0F1010800F8011C09980FA9A1EB5D
:100980000807FF1D00B10120411901EBEA70A169C0
:100990003844081A401EA0612078C00602D42046C0
:1009A000FFF736FC099828B1D4E901219047206A65
:1009B000401C20622078C00622D52046FFF728FC84
:1009C0001EE0002E04DBB34502DD01A8805D00E0DF
:1009D0003020D4E901219047206A401C2062761C17
:1009E000AAF101005FEA000A0AD100F049F8C068E4
:1009F0000168405CD4E901219047206A401C2062D4
:100A0000281EA5F10105DCDC07E0D4E9012118F876
:100A1000010B9047206A401C2062381EA7F1010795
:100A2000F3DC2046FFF70AFC032011B041E610B5C5
:100A3000436913B1AFF3008001E0FFF710FC012020
:100A400010BD127800F124010A7000224A700122C0
:100A5000EDE711684FF0FF32E9E70000074B70B592
:100A60000D467B4400F05BF80446284600F01CF974
:100A700010B14FF0FF3070BD204670BD273600002A
:100A8000004870474C01002030B5B0F10A024FEA2F
:100A9000900E71F100034EEA817EB0EB0E0061EB27
:100AA00091014FEA101E4EEA017E10EB0E0041EB61
:100AB00011114FEA102E4EEA016E10EB0E0041EBC1
:100AC00011214FEA104E4EEA014E10EB0E0041EBA1
:100AD0001141401841F100014FEAD00040EA417055
:100AE0004FEAD10110EB80054FEA810444EA90748B
:100AF00044EB01046D1944EB0404521BA3414FF075
:100B0000000348BF0A3200D530BD401C41F100014E
:100B100030BD000001694A1C02610878704700B5C9
:100B20008FB0CDE901310021059105497944CDE926
:100B3000031011466846FFF723FC0FB000BD00000C
:100B4000E5FFFFFF2DE9F0411F460446032601683B
:100B5000072A01F4006004DB08B116A505E016A51C
:100B600003E008B115A500E015A521F010002060F4
:100B7000A069C01EA0610FB1401EA0612046FFF712
:100B800047FB4FB1D4E9012138469047206A401C09
:100B90002062C01C206206E0206AFAE7D4E9012145
:100BA00015F8010B9047761EF8D22046FFF746FB5A
:100BB000BDE8F0814E414E006E616E00494E460028
:100BC000696E66002DE9F047814616468AB03548C1
:100BD00078440DC88DE80D0032487844801C03AC81
:100BE0000DC884E80D0041F69B300844372190FB86
:100BF000F1F290FBF1F5A5F1800501FB12041B3C1D
:100C000002D56442012000E00020DFF898A0804671
:100C10000027FA44AAF1BE0A0EE0E0070AD03246E5
:100C2000684607EB470101230AEB810100F043FB13
:100C30008DE8070064107F1C002CEED1194F7F4413
:100C4000AE3F19E0E80715D007EB04100DF1180AC4
:100C500090E80E008AE80E00C068F04201D19819B1
:100C600008903246012306A903A800F024FB03AB39
:100C700083E807006D10641C002DE3D14FF00103E1
:100C800032466946B8F1000F03A802D000F0FEFA20
:100C900001E000F010FBC9E90001C9F808200AB022
:100CA000BDE8F087E83D0000007B00F08000704761
:100CB000004870472C0100207546FFF7F9FFAE464B
:100CC00005006946534620F00700854618B020B558
:100CD000FFF77EFABDE820404FF000064FF0000716
:100CE0004FF000084FF0000B21F00701AC46ACE8D4
:100CF000C009ACE8C009ACE8C009ACE8C0098D4641
:100D0000704710B50446AFF300802046BDE81040A0
:100D1000FFF749BA4FF0013C50F8042B51F8043B5F
:100D20009A4221D1A2EB0C03934313EACC1317D1BF
:100D300050F8042B51F8043B9A4215D1A2EB0C0356
:100D4000934313EACC130BD150F8042B51F8043B16
:100D50009A4209D1A2EB0C03934313EACC13DBD0E4
:100D60004FF00000704700BFD01A01BAB1FA81F10C
:100D700001F0180122FA01F0CB40C1F12001DBB2F1
:100D8000C0B2C01A2CFA01F3D11A914311EAC3116F
:100D9000E6D170475FEA400C08BF91F0000F4FEAC0
:100DA0008C234FEAC12243EA51514FEA1C5018BF2D
:100DB00000F5F0404FEA300018BF41F000415FEA13
:100DC0006C5C00F02980BCF1FF3F08BF40F0804020
:100DD0007047130C06BF12044FF0100C4FF0000CBC
:100DE000130E04BF12020CF1080C130F04BF120102
:100DF0000CF1040C930F04BF92000CF1020CD30F02
:100E000004BF52000CF1010C11464FF00002A0F19A
:100E10001F00A0EB0C00704711F0004F08BF704797
:100E200031F000413FF4D5AF0B0C06BF09044FF081
:100E3000100C4FF0000C0B0E04BF09020CF1080C53
:100E40000B0F04BF09010CF1040C8B0F04BF8900C8
:100E50000CF1020CCB0F04BF49000CF1010CCCF1DA
:100E60002003A0EB0C0022FA03F302FA0CF241EA91
:100E7000030100F10100704720F07F4C80EA03007D
:100E800023F07F47ACEB070303F57C5300F00040F1
:100E900003F1FF032DE980494FEA154B09B44FEAEE
:100EA000144325EA0B4E24EA03480FF2042606EB0E
:100EB000132749083E785FEA320203FB0667C7F54D
:100EC000000707FB06F64FEA54374FEAD64606F10D
:100ED000020607FB066CCCF1005C4FEA1C472CEACB
:100EE000074C07FB06F40CFB06F504EB15464FEA2E
:100EF000961634BF00204FF000404FEAD13706FB72
:100F000007FC4FEA1C4C0CFB0BF7D21B03FB0CF746
:100F100061EB07010CFB0EF7B0EB074072EB1742D9
:100F20000CFB08F734BFA2EB0742B2EB074261EBC0
:100F300017414FEA0C444FEA910706FB07FC4FEAC2
:100F40001C4C0CFB0BF7B0EBC74072EB573203FBAA
:100F50000CF734BFA2EBC742B2EBC74261EB57318B
:100F60000CFB0EF7B0EBC70072EB57720CFB08F7E7
:100F700034BFA2EBC702B2EBC70261EB5771039F0C
:100F80004FEA816141EA921104EBCC044FEAD13778
:100F90004FEA826206FB07FC42EA90124FEA806049
:100FA0004FEA1C4C0CFB0BF7D21B03FB0CF761EB5D
:100FB00007010CFB0EF7B0EB074072EB17420CFB7E
:100FC00008F734BFA2EB0742B2EB074261EB1741CF
:100FD0004FEA8C554FEA910704EB9C2406FB07FC73
:100FE0004FEA1C4C0CFB0BF7B0EBC74072EB5732CF
:100FF00003FB0CF734BFA2EBC742B2EBC74261EB75
:1010000057310CFB0EF7B0EBC70072EB57720CFBBD
:1010100008F734BFA2EBC702B2EBC70261EB57710E
:1010200015EB4C254FEA816141EA92114FEA826249
:101030004FEAD13742EA901206FB07FC44F1000464
:101040004FEA80604FEA1C4C0CFB0BF7D21B03FBF2
:101050000CF761EB07010CFB0EF7B0EB074072EBEE
:1010600017420CFB08F734BFA2EB0742B2EB074272
:1010700061EB174115EB1C154FEA813141EA9241B2
:101080004FEA823242EA90424FEA80304FEA0C76D1
:1010900044F1000448EA03434EEA0B484FF0000EC7
:1010A000B2EB080C71EB030724BF624639464EEBE6
:1010B0000E0E4FF0000B0018524149414BEB0B0B49
:1010C000B2EB080C71EB03077BF1000B24BF624607
:1010D00039464EEB0E0E4FF0000B001852414941BD
:1010E0004BEB0B0BB2EB080C71EB03077BF1000B26
:1010F00024BF624639464EEB0E0E51EA020718BF76
:1011000046F0010616EB0E7655F1000254F100018F
:1011100003D5BDE88901BDE80088BDE88901BDE8C7
:101120000048B619524141EB0101A3F10103704798
:1011300080807F7E7D7C7B7A797877767675747314
:10114000727171706F6E6E6D6C6C6B6A6A696868D3
:10115000676666656464636362616160605F5F5E69
:101160005E5D5D5C5C5B5B5A5A59595858575756DF
:101170005655555554545353525252515150505044
:101180004F4F4F4E4E4D4D4D4C4C4C4B4B4B4A4A96
:101190004A494949484848474747474646464545DA
:1011A0004544444444434343434242424241414113
:1011B000002B9C4630D477002BD01CB54FEA370764
:1011C00003B44FF010004FF01001BAF1000F06D039
:1011D000BCF1000FDCBF40F0080040F008014FF008
:1011E00000000FBCBDE810400BF1010BBBF1010F7B
:1011F00008BF5FEA170722BF12F1010211F10101D6
:101200004FF0004143F1000300F0004043EA0000CA
:101210007047F9D35708D0E746EA064613F1400F66
:101220004FEA16461FDD13F1200FDFBF16430A46B3
:10123000002120335B42BED0C3F1200746EA0646B8
:1012400002FA07F74FEA164646EA0706C3F12007F7
:1012500022FA03F201FA07F721FA03F14FF0000333
:1012600042EA0702A7E746EA020646EA06464FEACE
:10127000164646EA0106BCBF46EA0646360C4FF063
:1012800000034FF000024FF0000194E72DE9804C7D
:101290009A46934670B491E8380007C831EA400C8A
:1012A00048BF34EA430C03D5FFF7E6FDFFF780FFA4
:1012B000F0BCBDE8008C2DE9804C9A46934670B492
:1012C00091E8380007C810F0804F08BF13F0804F36
:1012D00003D100F005F8FFF76BFFF0BCBDE8008C10
:1012E00020F07F4780EA030023F07F4C07EB0C03DC
:1012F000A3F57C5300F00040A3F1FE0392F0000F31
:1013000000F0B38095F0000F00F077802DE90149DF
:101310004FEA11404FEA144621EA004800FB06FC60
:1013200024EA064708FB06F607FB08F800FB07F768
:1013300018EB06484CEB164C4FEA124B18EB0748DB
:101340004FEA15464CEB174022EA0B4E0BFB06FC0E
:1013500025EA06470EFB06F607FB0EFE0BFB07F71A
:101360001EEB064E4CEB164C4FF000061EEB074EE4
:101370004CEB174B18EB0B0840F1000018EB0E0B71
:1013800058EB000840F100008F1A4FF000013CBFFD
:10139000C943661B14BFB5EB040C00213CBFC94315
:1013A000F61B4FEA17444EEA8E0E27EA04454FEA31
:1013B0001C4704FB07622CEA074C05FB07F70CFBF4
:1013C00005F604FB0CFC16EB074642EB174216EB46
:1013D0000C4642EB1C421BEB060658EB0202414155
:1013E00046EA9E0601D5BDE80189B619524141EB96
:1013F0000101A3F10103BDE801894FEA14454FEA59
:10140000114724EA054621EA074C05FB07F406FBD1
:1014100007F70CFB06F105FB0CFC11EB074144EB55
:1014200017444FEA124711EB0C4144EB1C4422EAEB
:10143000074C05FB07F206FB07F70CFB06F605FB5E
:101440000CFC16EB074642EB174216EB0C4642EB40
:101450001C456A1854F1000148BF7047B619524143
:1014600041EB0101A3F10103704795F0000F37D064
:101470004FEA11424FEA144721EA024624EA074C98
:1014800002FB07F106FB07F70CFB06F402FB0CFC62
:1014900014EB074441EB17414FEA154714EB0C449A
:1014A00041EB1C4125EA074C02FB07F506FB07F759
:1014B0000CFB06F602FB0CFC16EB074645EB17454A
:1014C00016EB0C4645EB1C42121951F1000148BFC6
:1014D0007047B619524141EB0101A3F10103704776
:1014E0004FEA14454FEA114724EA054621EA074C22
:1014F00005FB07F106FB07F70CFB06F24FF00006B1
:1015000005FB0CFC12EB074241EB174112EB0C42BE
:1015100051EB1C4148BF7047921841EB0101A3F108
:101520000103704770B5044600688168C943C90764
:1015300017D1816821F00101816000F045FD054669
:101540000AE000BF00F040FD401B022804D92068DB
:101550008068C043C00706D020688068C043C007C9
:10156000F0D0002070BDA06A40F01000A062E06AD8
:1015700040F00100E062012070BDFEE7704772B6E6
:10158000FEE70000F8B50024009490F824202546DA
:10159000012A12D0012280F824204A681F23072A3A
:1015A0000DD20668776B521E02EB820293409F4376
:1015B0000B6893401F43776319E00220F8BD06686B
:1015C0000D2A0AD2376BD21F02EB820293409F434F
:1015D0000B6893401F43376309E0F76A0D3A02EB4B
:1015E000820293409F430B6893401F43F7620A684F
:1015F000072306680A2A0AD3F7680A3A02EB42026E
:1016000093409F438B6893401F43F76008E037691E
:1016100002EB420293409F438B6893401F43376124
:101620000A68102A01D0112A20D1124B02689A426E
:1016300017D193681B0219D4936843F40003936095
:101640000968102912D10C490C4A0968B1FBF2F162
:1016500001EB8101490000E0491E00910029FBD106
:1016600004E0816A41F020018162012480F8245065
:101670002046F8BD002401401800002040420F0021
:101680002DE9F0414FF0000704003D467ED0A06AEE
:10169000002628B9E66284F82460204600F07EF82F
:1016A0002046FFF73FFFA16AC90600D420B1A06A17
:1016B00040F01000A06269E0A16A21F4885141F075
:1016C0000201A1626268E169237B0A4347EA4301A0
:1016D0000A43A1684FF48077B94209D0012907D0A5
:1016E0005FF0000194F814C0BCF1010F02D00AE0D1
:1016F0003946F7E7F3B1A36A43F02003A362E36A34
:1017000043F00103E3622368D3F804C02CF4694C6E
:101710004CEA010CC3F804C021688B68DFF870C084
:1017200003EA0C0313438B60A168B9420BD0012973
:1017300009D00CE0DFF85CC0A3690CEB43330B432A
:1017400043F40061DFE7218A0D05A5F580152168C6
:10175000CB6A23F470032B43CB62216889680E4B5C
:101760001940914208D1E662A16A21F0020141F0DC
:101770000101A162BDE8F081A06A20F0020040F002
:101780001000A062E06A40F00100E0620120F1E791
:10179000FDF7E1FF00E0FFFFFE0E1FFF00B585B083
:1017A0000021009101910291039100680E49884245
:1017B00018D10E48816941F400718161816901F499
:1017C00000710491816941F0040181618069694679
:1017D00000F00400049002200090032001900448CF
:1017E00000F0FCFA05B000BD0024014000100240EA
:1017F00000080140F0B590F820500468A468012D5D
:1018000005D0022D03D0416A41F4802157E014F045
:10181000406F01D1E5004FD5C4F301640125A54017
:101820001D608D684FF4C0739DB1CE6835434E681E
:1018300045EAC605066803EB0417F5514FF4C27577
:10184000076805EB04150E697E51097D012905D055
:1018500009E00E88CD6845EA4655EBE701684E5928
:1018600046F480764E511179D579567941EA056171
:1018700095792D0445EA062529434FF4C676056877
:1018800006EB0416A9511178D57841EA05619578DF
:1018900052782D0445EA022211434FF4C4750268C0
:1018A00005EB04155151006803EB0411425842F056
:1018B000010242500020F0BD416A41F40011416232
:1018C0000120F0BD10B590F820300268012B07D040
:1018D000022B05D0416A41F480214162012010BDF4
:1018E000D2F8000240F00100C2F80002087D00F0CA
:1018F0001F0301209840D2F81C328343C2F81C32E7
:10190000CB69B3B9D2F80C328343C2F80C328C895C
:101910004B6864F31F434C6902EBC404C4F84032C3
:101920000C890B6864F31F434C6902EBC404C4F8D0
:101930004432CB69012B16D1D2F80C320343C2F8E2
:101940000C320C884B6864F31F434C6902EBC404EF
:10195000C4F840320C89CB6864F31F434C6902EB36
:10196000C404C4F844328B69002BD2F804320FD07F
:1019700053EA0003C2F804320B69002BD2F8143288
:1019800008D00343C2F81432096A012904D008E0E0
:101990008343EFE78343F5E7D2F81C120143C2F813
:1019A0001C12D2F8000220F00100C2F80002002050
:1019B00010BD406A704700000246002092F82030B7
:1019C000012B01D0022B05D1106821B1D0F81000F5
:1019D00000F003007047C068FAE770B590F8204047
:1019E000012C05D0022C03D0416A41F4802128E06B
:1019F000046809B32469A40720D04FF4D87405689B
:101A000004EB01142D5915F00405956005682D5956
:101A10001AD0ED08556005682C5904F00204D46012
:101A20004FF4DA74056804EB01142E5906F00F0622
:101A3000082E0CD308250DE0E468DCE7416A41F488
:101A400000114162012070BD6D0D1560E3E72D5955
:101A500005F00F05156105682D59C5F3072595613A
:101A600005682C59240C54614FF4DC72046802EBB5
:101A70000112A4581C700468A458240A5C700468FD
:101A8000A458240C9C700468A258120EDA704FF40B
:101A9000DE72046802EB0112A4581C710468A45899
:101AA000240A5C710468A458240C9C710468A25830
:101AB000120EDA71006829B1016941F0200101615B
:101AC000002070BDC16841F02001C160F8E7024606
:101AD000002092F82010012901D002290CD11168B0
:101AE0008A68520100D501208A68120100D5401C85
:101AF0008968C90000D5401C704770B5040003D048
:101B000094F8200010B104E0012070BD204600F0E0
:101B100081F82068016841F00101016000F054FA89
:101B20000546052604E000F04FFA401B0A2811D8AC
:101B300020684068C007F6D02068016821F00201E3
:101B4000016000F041FA05460BE000F03DFA401B51
:101B50000A2806D9606A40F40030606284F8206088
:101B6000D2E7206840688007EFD4207E01282068F3
:101B700001683DD021F080010160607E012820686D
:101B8000016838D021F040010160A07E0128206862
:101B9000016833D021F020010160E07E0128206837
:101BA00001682ED041F010010160207F01282068DB
:101BB000016829D021F008010160607F01282068B8
:101BC000016824D021F004010160D4E90201084336
:101BD000D4E90412114308436168491E084321688F
:101BE000C86100206062012084F82000002070BDE0
:101BF00041F08001C0E741F04001C5E741F020011C
:101C0000CAE721F01001CFE741F00801D4E741F025
:101C10000401D9E710B586B000210091019102912D
:101C2000039100681349884222D11348C16941F0E9
:101C30000071C161C16901F000710491816941F0D5
:101C40000401816180690D4C00F0040004904FF4A0
:101C5000006000906946204600F0C0F8A014009093
:101C600002200190032003906946204600F0B6F858
:101C700006B010BD006400400010024000080140A2
:101C800070B5044690F82000012804D0606A40F442
:101C90000020606218E0022084F8200020680168BB
:101CA00021F00101016000F08FF905460EE000BF50
:101CB00000F08AF9401B0A2808D9606A40F4003015
:101CC0006062052084F82000012070BD2068406813
:101CD000C007EDD1606270BD10B590F821100022F0
:101CE000022905D00421816380F82020012010BD45
:101CF00001680B6823F00E030B6001680B6823F08A
:101D000001030B6090F84030C46B012101FA03F32A
:101D1000636080F8211080F82020104610BD00007C
:101D200010B590F821100024022903D0042181630A
:101D300001243DE001680A6822F00E020A60016891
:101D40000A6822F001020A601A4A0168914201D130
:101D5000012121E0174A1432914201D110211BE0E8
:101D6000144A2832914201D1891515E0114A3C32BA
:101D7000914201D189140FE00E4A5032914202D1B2
:101D80004FF4803108E00B4A6432914202D14FF4A3
:101D9000801101E04FF08071064A083A516001213C
:101DA00080F82110002180F82010416B01B1884794
:101DB000204610BD0800024070B5044600F004F94A
:101DC0000546601C02D004480078044400F0FCF88A
:101DD000401BA042FAD370BD0C0000202DE9F84F43
:101DE000DFF8B8910024A9F1040B23460F2709F16D
:101DF000040AABF1040EC9E00125A5402A40AA421D
:101E00007DD1674ED1F804C0ACEB0608B44532D0A2
:101E100014DCBCF1030F3AD009DCBCF1000F2AD06E
:101E2000BCF1010F1CD0BCF1020F31D11DE0BCF19F
:101E3000110F17D0BCF1120F2AD119E0B8F5881F85
:101E400019D006DCB8F5803F15D0B8F5801F1FD13A
:101E500011E0B8F5001F0ED0B8F5041F18D10AE044
:101E6000CB6815E0CB681B1D12E0CB6808330FE090
:101E7000CB680C330CE08B682BB1012B4FF00803BF
:101E800003D0456104E0042302E0056100E0002383
:101E9000FF2A01D8064601E000F104064FEA840556
:101EA00001D9A5F12005D6F8008007FA05FC28EA3B
:101EB0000C0803FA05F548EA0508C6F800804D68E5
:101EC000ED0062D5374DAE6946F00106AE61AD69F1
:101ED00024F0030605F001050095334D06EB050CD3
:101EE000DCF80850A607360F07FA06F825EA0805B9
:101EF000DFF8B880404503D14FF0000817E044E018
:101F0000DFF8AC80404502D14FF001080FE0DFF868
:101F1000A480404502D14FF0020808E0DFF8988025
:101F2000404502D14FF0030801E04FF0040808FAE1
:101F300006F848EA0508CCF808804D68D9F8006032
:101F4000ED024D4601D5164300E096432E604D68E4
:101F5000DAF80060AD02554601D5164300E096431D
:101F60002E604D68DBF80060AD035D4601D5164379
:101F700000E096432E604D68DEF80060ED03754684
:101F800001D5164300E096432E60641C0D682A4676
:101F9000E5407FF431AFBDE8F88F00000804014050
:101FA0000000111000100240000001400008014034
:101FB000000C014000100140001401400AB1016111
:101FC00070470904FBE70000014880687047000083
:101FD0000C00002070B5040025D094F83D000025C9
:101FE00020B984F83C50204600F076FA242084F88A
:101FF0003D002068016821F001010160206801684E
:1020000041F4004101602068016821F40041016051
:1020100000F034FC4D4A6168914201D84C4900E01F
:102020004C49884201D2012070BD4B492368B0FB66
:10203000F1F15E6826F03F060E435E6063689342EE
:1020400006D94FF4967359434FF47A73B1FBF3F109
:102050002368491C1E6A26F03F06314319626168F5
:10206000914210D84900401EB0FBF1F2521CC2F35D
:102070000B02042A01D2042022E0B0FBF1F0401C44
:10208000C0F30B001CE0A268F2B301EBC10303EB49
:102090000116431EB3FBF6F35B1C43F480431B05A0
:1020A00049D092B301EBC10202EB0111401EB0FB1B
:1020B000F1F0401CC0F30B0040F4804040F40040BD
:1020C0002168CA694CF6FF739A431043C861D4E98A
:1020D000071001432068026822F0C002114301602A
:1020E000D4E9030101432068826848F2FF339A4330
:1020F00011438160D4E9050108432168CA6822F0D0
:10210000FF021043C86001E00EE016E0206801689D
:1021100041F0010101602564202084F83D00256321
:1021200084F83E50002070BD01EB4106431EB3FB16
:10213000F6F35B1CB3E70120C2E701EB4101401E4F
:10214000B0FBF1F0401CC0F30B00B7E7A086010024
:1021500080841E0000093D0040420F002DE9F84F29
:102160000025DDF82890984617468A4604460095D3
:10217000FFF72AFF064694F83D0020287AD119235C
:10218000012286492046009601F066F80028F5D124
:1021900094F83C0001286DD0012084F83C002068B0
:1021A0000168C90703D1016841F00101016020689D
:1021B000016821F400610160222084F83D001020B4
:1021C00084F83E0025646762A4F82A80608D20852B
:1021D0007348E06233464A465146204600F04CFFC1
:1021E00000287CD1208DDFF8BC81202768B1012830
:1021F00014D00228206801681ED041F4806101607B
:102200002068416980690090BBE02068416981696C
:102210000091016841F400710160B2E0206801683A
:1022200021F48061016072B6206841698169009182
:10223000016841F400710AE041F40061016072B686
:102240002068416981690091016821F48061016021
:1022500062B696E0032865D801280CD002284B46C8
:102260004FF000024146204600960BD000F0F4FFEC
:10227000A8BB0CE090E032464946204601F092F8B7
:1022800068BB71E000F0E8FF48BB72B633E020683D
:10229000016821F48061016072B620680069616A9A
:1022A0000870606A401C6062208D401E2085608D31
:1022B000401E60853C4846F2A8110068B0FBF1F072
:1022C000C0EBC00000EB80000090401E009007D0E3
:1022D00020684069C04340070DD50098F5E727E026
:1022E00044F8305F6773A573206940F020002061D7
:1022F00062B625731CE02068016841F4007101603A
:1023000020680069616A0870606A401C6062218D03
:10231000491E2185618D491E618562B62168096962
:10232000017025E032464946204601F03BF810B1E5
:102330000120BDE8F88F20680069616A0870606A52
:10234000401C6062208D401E81B22185608D401E40
:10235000608520684269D243520712D4032903D111
:10236000016821F48061016020680069616A087079
:10237000606A401C6062208D401E2085608D401E7A
:102380006085208D00287FF465AF84F83D7084F867
:102390003E5084F83C50CCE70220CAE7020010000F
:1023A0000000FFFF04000100180000202DE9F84F95
:1023B0001F4690468A460446DDF82890FFF704FE43
:1023C000054694F83D0020287FD119230122404979
:1023D0002046009500F040FF002876D194F83C009C
:1023E000012872D0012084F83C0020680168C907E8
:1023F00003D1016841F0010101602068016821F406
:1024000000610160212084F83D00102084F83E0026
:1024100000262664C4F824806785608D20852D48B9
:10242000E0622B464A465146204600F09BFE90B99A
:10243000206841698069009036E02A464946204676
:1024400000F0E8FF50B1206C042804D12068016836
:1024500041F4007101600120BDE8F88F606A2168D5
:1024600000780861606A401C6062618D491E618568
:10247000218D491E89B2218522685369DB435B07A0
:102480000BD451B100781061606A401C6062608DAD
:10249000401E6085208D401E20852A4649462046E4
:1024A00000F0AEFE0028CED1208D0028C5D154F812
:1024B0003D0B016841F400710160202004F81E0901
:1024C000E67766770020C7E7FFE70220C4E7000051
:1024D000020010000000FFFF10B586B0002100913F
:1024E00001910291039100680F4988421AD10F4C63
:1024F000A06940F00800A061A069694600F00800EA
:102500000490C020009012200190032003900848FE
:10251000FFF764FCE06940F40010E061E06900F45A
:102520000010049006B010BD00540040001002409E
:10253000000C0140024881680278114481607047B4
:102540000C000020074810B5016841F0100101603F
:10255000032000F075F80F2000F006F800F024F8D2
:10256000002010BD0020024070B50D4D04464FF410
:102570007A712878B1FBF0F00A490968B1FBF0F0F4
:1025800000F052FB48B9102C07D200222146501E01
:1025900000F036F800206C6070BD012070BD0000B6
:1025A0000C000020180000200C4808B5816941F09B
:1025B00001018161816901F001010091C16941F06E
:1025C0008051C161C06900F08050009004484168AA
:1025D00021F0E06141F00071416008BD001002404F
:1025E00000000140002809DB00F01F02012191409A
:1025F0004009800000F1E020C0F8001170470000A1
:10260000F0B40E4B1B680C46C3F30223C3F107055D
:10261000042D00D90425191D072901D2002300E04B
:10262000DB1E012606FA05F1491E214099409E4015
:10263000761E16403143F0BC01F010BD0CED00E0F9
:10264000064900F0070208684FF6FF03184040EA09
:102650000220034A10430860704700000CED00E0C0
:102660000000FA052DE9F84305460078354CC0070F
:1026700054D0E0690026C00008D4E06940F08050E2
:10268000E061E069012600F0805000902E4801686A
:10269000C90512D40168804641F480710160FFF7DA
:1026A00093FC074605E000BFFFF78EFCC01B6428C3
:1026B00023D8D8F80000C005F6D5206A10F4407081
:1026C00021D0A98801F4407181421CD0206A1F49A1
:1026D000012220F440700A6000220A602062C007D4
:1026E00011D0FFF771FC074641F2883808E000BFBF
:1026F000FFF76AFCC11B414502D90320BDE8F883FE
:10270000206A8007F4D5206A696820F44070084385
:1027100020621EB1E06920F08050E06128788007D7
:1027200005D56068A96820F44040084360602878B7
:10273000C00605D56068E96820F480000843606041
:102740000020DBE7001002400070004040044242DD
:102750002DE9F0470F46050061D0434E306800F088
:102760000700B84209D2306820F0070038433060D3
:10277000306800F00700B84251D128683B4C81070F
:1027800012D5400703D5606840F4E06060602878A7
:10279000000703D5606840F4605060606068A96815
:1027A00020F0F000084360602878C00728D06868EF
:1027B000012810D02168022810D0890700292EDABC
:1027C000616821F0030101436160FFF7FDFB804672
:1027D00041F288390DE021688903EFE78901EDE7CF
:1027E000FFF7F2FBA0EB0801494502D90320BDE841
:1027F000F0876068696800F00C00B0EB810FEFD1E2
:10280000306800F00700B8420BD9306820F00700AC
:1028100038433060306800F00700B84201D0012032
:10282000E5E72878400705D56068E96820F4E060AE
:10283000084360602878000706D56068296920F49D
:10284000605040EAC100606000F038F86168084AF2
:10285000C1F30311515CC84006490860064800688E
:10286000FFF782FE0020C2E7002002400010024075
:10287000EC4800081800002010000020044805491A
:1028800000684968044AC1F30221515CC84070479E
:102890001800002000100240FC48000804480549C8
:1028A00000684968044AC1F3C221515CC8407047BE
:1028B0001800002000100240FC4800080E4A516831
:1028C0000E4801F00C03042B11D0082B0FD10C483B
:1028D000C1F38343C903C05C0AD55168084AC1F3F8
:1028E0004041921E515C054A5043B0FBF1F07047E5
:1028F00004494843704700000010024000127A006B
:10290000DC48000800093D002DE9F84F040070D0B4
:102910002078C04DC00749D06868C0F38100012805
:1029200007D06868C0F38100022809D16868C00335
:1029300006D52868800339D560680028E7D035E0DF
:102940006068B0F5803F0BD010B1B0F5A02F11D06A
:10295000286820F480302860286820F4802002E075
:10296000286840F480302860606890B1FFF72CFB45
:1029700006460AE0286840F480202860F0E700BF9F
:10298000FFF722FB801B642873D828688003F7D5E3
:102990000CE0FFF719FB064605E000BFFFF714FB4C
:1029A000801B6428F0D828688003F7D420789A4EDA
:1029B00080074FF001094FF0000839D5686810F022
:1029C0000C0F07D06868C0F38100022809D168683D
:1029D000C00306D42868800714D52069012808D1CF
:1029E00010E02069B0B1C6F80090FFF7EDFA074695
:1029F00005E00AE1FFF7E8FAC01B0228C4D82868FE
:102A00008007F7D52868616920F0F80040EAC10026
:102A100028600DE0C6F80080FFF7D6FA074604E00C
:102A2000FFF7D2FAC01B022823D828688007F7D402
:102A3000207800072CD57948A169D9B1C0F8009059
:102A4000FFF7C2FA074604E0FFF7BEFAC01B0228F0
:102A50000FD8686A8007F7D571484FF4FA510068BB
:102A6000B0FBF1F0009000BF0098411E0091FAD237
:102A70000EE080E0C0F80080FFF7A6FA074604E009
:102A8000FFF7A2FAC01B022875D8686A8007F7D43E
:102A90002078400760D5E8690027C00008D4E869BD
:102AA00040F08050E861E869012700F08050009014
:102AB0005C480168C90513D40168834641F48071FC
:102AC0000160FFF781FA824606E000BFFFF77CFA5B
:102AD000A0EB0A0064284ED8DBF80000C005F5D54D
:102AE000E06801280AD008B1052813D0286A20F030
:102AF00001002862286A20F0040002E0286A40F001
:102B000001002862E06841F2883B98B1FFF75CFA67
:102B100082460BE0286A40F004002862EEE700BF1E
:102B2000FFF752FAA0EB0A0159455AD8286A8007E4
:102B3000F6D50CE0FFF748FA824605E0FFF744FAC5
:102B4000A0EB0A0159454CD8286A8007F6D41FB17A
:102B5000E86920F08050E861E06988B36968C1F3F2
:102B60008101022944D00228C6F8608004D0FFF712
:102B70002BFA044638E034E0FFF726FA074604E073
:102B8000FFF722FAC01B02282BD828688001F7D44F
:102B9000206AB0F5803F05D16868A16820F4003054
:102BA00008436860D4E908010843696821F4741196
:102BB00008436860C6F86090FFF706FA044606E02E
:102BC00025E000BFFFF700FA001B022809D828689B
:102BD0008001F7D51BE000BFFFF7F6F9001B0228C4
:102BE00002D90320BDE8F88F28688001F4D40EE0F4
:102BF0000128F7D06868226A00F48031914204D13C
:102C0000616A00F47010884201D00120EAE70020D8
:102C1000E8E7000000100240000042428004424207
:102C2000180000200070004010B5401EB0F1807FF9
:102C300001D3012010BD4FF0E02460610F21601727
:102C400001F00CFA0020A06107202061002010BDD7
:102C500070477047F8B5016804460868CA684B6950
:102C600010F00F0F4FF0000559D003F0010602F4E9
:102C70009077374365D0C10705D0D10503D5616C86
:102C800041F001016164410705D5D90703D0616CAA
:102C900041F002016164810705D5D90703D0616C59
:102CA00041F004016164010707D502F020013143BE
:102CB00003D0616C41F008016164616C00293AD075
:102CC000800604D5900602D5204600F04AFE206812
:102CD0004069616CC0F38010090700D460B32046DE
:102CE00000F018FE20684069400621D520681430A5
:102CF00050E8001F21F0400140E80012002AF5D101
:102D0000E06BA8B16D494163E06BFFF709F800285B
:102D100011D0E06B416B01B0BDE8F040084783067D
:102D20000FD593060DD52046BDE8F84000F019BE3A
:102D30002046FFF78EFFF8BD2046FFF78AFF656447
:102D4000F8BD266B2023012E7CD1C6067AD5D60687
:102D500078D508684868009048694FF00206400638
:102D600040D5E16B086840680004000CE8D0A28DF3
:102D70008242E5D9E085886920282DD020680C3072
:102D800050E8001F21F4807140E80012002AF5D1BC
:102D90002068143050E8001F21F0010140E80012C3
:102DA000002AF5D12068143050E8001F21F04001BE
:102DB00040E80012002AF5D184F8423025632068EB
:102DC0000C3050E8001F21F0100140E80012002AEA
:102DD000F5D1E06BFEF780FF6663A08DE18D401AB0
:102DE00081B22AE0A08DE18D401A81B2E08D0028E9
:102DF000A6D00029A4D022680C3252E8000F20F49B
:102E0000907042E80007002FF5D12068143050E898
:102E1000002F22F0010240E80027002FF5D184F8AE
:102E20004230256320680C3050E8002F22F0100259
:102E300040E80023002BF5D166632046FFF708FF2A
:102E4000F8BDFFE705062BD5150629D594F84100F6
:102E50002128F5D1A068B0F5805F01D12069B0B11B
:102E6000206A411C2162216800784860E08C401E85
:102E70000004000CE084E3D12068C16821F08001E7
:102E8000C1602068C16841F04001C160D8E7206A94
:102E90000088C0F308004860206A801C2062E5E7D3
:102EA0004006CDD55006CBD5CA68204622F0400258
:102EB000CA6084F8413000F0C6F8C1E7053900085F
:102EC00070B5040004D094F84100002510B106E06C
:102ED000012070BD84F84050204600F023F82420E3
:102EE00084F841002068C16821F40051C160204687
:102EF00000F098FD2068016921F49041016120688B
:102F0000416921F02A0141612068C16841F4005102
:102F1000C1606564202084F8410084F84200656344
:102F2000002070BD30B585B0002400940194029457
:102F300003940068184988422CD11848816941F4EB
:102F400080418161816901F480410491816941F08E
:102F5000040181618069124D00F0040004904FF477
:102F600000700090022001900320039069462846DB
:102F7000FEF734FF2815CDE900046946284602947F
:102F8000FEF72CFF002211462520FFF739FB2520F4
:102F9000FFF728FB05B030BD0038014000100240AB
:102FA0000008014070472DE9F843044690F84100BD
:102FB000984616460D46202802D00220BDE8F88328
:102FC00085B17EB100206064212084F84100FEF7C5
:102FD000FBFFA6848146E684A0682027B0F5805FC9
:102FE00002D003E00120E9E7206910B12E46002558
:102FF0000EE000260CE08021204600F06FFDA8B90D
:10300000C6B116F8010B21684860E08C401EE084D0
:10301000E08C4B464FF00002CDF800800028EAD14A
:103020004FF04001204600F059FD40B184F8417056
:103030000320C3E735F8020BC0F30800E3E784F888
:1030400041700020BAE77047FEE701684A69D24341
:1030500052050FD46FF480624A61002140F8301F9E
:10306000202242738173026942F0040202610173FB
:1030700001207047002070472DE9F84F0446C06AD0
:103080001E4693460D4621680A6842F480620A6033
:10309000082807D0012805D010F5803F02D0206B0A
:1030A000112804D12068016841F4807101604FF05B
:1030B00001195B46002249462046009600F0CCF8F4
:1030C0004FF4007840B120680068C00501D5C4F80D
:1030D00040800320BDE8F88F2069DFF884A0B0F5B8
:1030E000804F0FD00620216800EAD51747F0F00086
:1030F000086133465A460AF10601204600F0F4F80A
:1031000058BB03E0E8B240F001001CE02168E8B2DF
:10311000086133465A465146204600F0E5F8E0B9CA
:103120002068416981690091016841F48071016002
:103130005B46002249462046009600F08DF80028A4
:10314000C1D147F0F1002168086133465A46514623
:10315000204600F0C9F80028BCD00120BAE70000E2
:1031600002000100F8B50446C06A1E460D46174627
:10317000082807D0012805D010F5803F02D0206B29
:10318000122804D12068016841F48071016013465F
:1031900000224FF001112046009600F05DF840B18A
:1031A00020680068C00502D54FF400702064032039
:1031B000F8BD2069B0F5804F0ED00620216800EAE6
:1031C000D51040F0F000086133463A460B492046DE
:1031D00000F08AF878B902E005F0FE0000E0E8B2FD
:1031E00021680861054933463A46891F204600F0A8
:1031F0007BF80028DCD00120F8BD000008000100A9
:1032000070B516460D4604461EE02046FFF71DFF2A
:1032100008B1012070BD681C16D0FEF7D5FE801BDA
:10322000A84200D885B920684069C04340070BD543
:10323000002044F8300F20216173A073216941F010
:10324000200121612073E4E720684069C043400702
:10325000DBD4002070BD00002DE9F04798461746EA
:103260000D460446C1F30746DDF820902AE000BF72
:10327000B8F1FF3F26D0FEF7A7FEA0EB09014145BC
:1032800002D8B8F1000F1DD12068012E16D0806938
:1032900025EA00000004000C12D00020B84211D131
:1032A000002044F8300F20216173A073216941F0A0
:1032B0002001216120730120BDE8F0874069E7E724
:1032C0000120EBE72068012E0AD0806925EA000082
:1032D0000004000C06D00020B842C9D00020EBE763
:1032E0004069F3E70120F7E72DE9F04798461646D5
:1032F0000D4604464FF000094FF0200AC1F307477E
:1033000023E020684069C043400515D42068016867
:1033100041F40071016021686FF480604861C4F875
:10332000309084F83DA084F83E90216C41F0040177
:10333000216484F83C9021E0701C06D0FEF744FE26
:10334000A0EB0800B04203D816B1012F1FD021E036
:103350002068012F15D0806925EA00000004000CC8
:1033600018D000BF44F8309F84F80DA084F80E9068
:10337000216941F02001216184F80C900120BDE811
:10338000F087406925EA00000004000CEAD12068BB
:10339000406901E02068806925EA00000004000C13
:1033A000AFD1ECE72DE9F041002590460E460446EA
:1033B000202728E04069C043C0060CD454F8301BD5
:1033C0006FF01000486144F810596777A577206ABC
:1033D0002062257714E0FEF7F7FDA0EB0800B0426D
:1033E00000D886B920684069C04340060BD544F830
:1033F000305F6773A573206940F02000206125735A
:103400000120BDE8F08120684169C9434906D1D453
:103410000020F6E770B516460D4604461EE020462D
:10342000FFF713FE08B1012070BD681C16D0FEF72F
:10343000CBFD801BA84200D885B920684069C043F5
:1034400000060BD5002044F8300F20216173A073D3
:10345000216941F0200121612073E4E7206840697F
:10346000C0430006DBD4002070BD00003EB5002440
:1034700010480094019402940D4984600160047323
:103480000475012505614FF460214460C161FEF7B8
:10349000F7F808B1FEF773F80095CDE901546946D5
:1034A0000448FEF76FF8002801D0FEF768F83EBD2B
:1034B0000024014038000020104810B50E4901607A
:1034C0000C21416000214FF08072C0E902121212FB
:1034D0000261520142610176012242768276C27611
:1034E00001774177FEF709FB002803D0BDE81040C3
:1034F000FEF745B810BD00000064004068000020E1
:103500002DE9F04186B000242448009401940294EF
:103510000394816941F010018161816901F010011A
:103520000491816941F020018161816901F02001EC
:103530000491816941F004018161816901F0040114
:103540000491816941F0080181618069144F00F0A4
:10355000080048F260050490002229463846FEF72C
:103560002DFDDFF84080002208214046FEF726FDB1
:103570000095022601250396CDE901546946384697
:10358000FEF72CFC0820CDE90005CDE9024669468E
:103590004046FEF723FC06B0BDE8F0810010024073
:1035A00000080140000C01400D4810B50B490160B6
:1035B0000C49416000214FF480428160C0E9031250
:1035C00041618161C1610162FEF704FD002803D001
:1035D000BDE81040FDF7D3BF10BD0000005400400F
:1035E00090000020A08601000C4810B50A49016037
:1035F0004FF4E1314160002181600C22C160C0E9DB
:1036000004128161C161FFF75BFC002803D0BDE8B3
:103610001040FDF7B4BF10BD00380140E4000020A9
:10362000FEE7FEE7FFB581B01E461746040016D040
:103630002068A0B19FB196B14FF47A75012302AA18
:10364000DA210095FEF7B2FE002806D10095334638
:103650003A46DB212068FEF781FD05B0F0BD012070
:10366000FBE7704770B5044659B1200208460AD5F9
:10367000A4F1807400F06AFF0546204600F04EFF7A
:1036800007E0002070BD00F061FF0546204600F015
:103690005DFF2946BDE8704000F062BE10B5010430
:1036A0006FF0070404D5A0F5803000F037FF01E08B
:1036B00000F04CFF2146BDE8104001F0D0B80000FA
:1036C000B0F17E5F02DA4FF400507047B0F1804FE6
:1036D00002DA4FF480507047B0F1814F02DA4FF4B4
:1036E00000607047B0F1824F02DC4FF48060704799
:1036F000B0F1834F02DC4FF400707047B0F1844F9B
:1037000002DC4FF4807070470A49884201DC802057
:1037100070470949884201DC4020704707498842C8
:1037200001DC202070470649884201DC10207047E8
:1037300000207047000082420000034300008243E3
:103740000000FA4370B5040005D021B1002584E8DB
:10375000260013B105E0012070BD1046FFF7B0FF51
:1037600003462381A5726420FEF726FB002070BD6E
:1037700030B587B005004FF000000C468DF808000A
:1037800061D0002C5FD002AAA521284600F060F885
:10379000002856D19DF80800A52100F0FD028DF803
:1037A0000820284600F057F800284AD10A22302184
:1037B000284600F050F8002843D13220FEF7FCFAEA
:1037C00003AA0621284600F043F8002839D104AAAC
:1037D0000721284600F03CF8002832D105AA08212C
:1037E000284600F035F800282BD16A4609212846E2
:1037F00000F02EF8002824D101AA0A21284600F062
:1038000027F800281DD19DF80C009DF81010000429
:1038100040EA01209DF81410084320609DF8041030
:103820009DF8002041EA0221A1802989FFF71AFFB3
:10383000064900F095FDA060A088FFF72FFFE0602B
:10384000002007B030BD0120FBE7000000007A44F3
:103850000123FFF7E7BE1CB502238DF804108DF895
:10386000052001AA40B1006830B14FF47A7100918F
:10387000DA21FEF79BFD1CBD01201CBD7047FEF741
:1038800059BE30B593B028216846FCF73DFE14219F
:103890000AA8FCF739FE00250F9509200121109593
:1038A0000090119512954FF4803004910691CDE966
:1038B00001050224CDE907404FF4E0100990684665
:1038C000FFF722F808B172B6FEE70AA90F2081E8D7
:1038D00031004FF48060CDE90D0502210AA8FEF702
:1038E00037FF08B172B6FEE74FF4004011900F9415
:1038F0000FA8FEF7B7FE002801D072B6FEE713B09E
:1039000030BD704710B5406A0021C185C184FFF702
:10391000A0F910BD01680C3151E8002F22F490721B
:1039200041E80023002BF5D10168143151E8002F44
:1039300022F0010241E80023002BF5D1016B01299F
:1039400009D101680C3151E8002F22F0100241E842
:103950000023002BF5D1202180F8421000210163C3
:10396000704708B590F84210222901D0022008BD06
:1039700082684FF480539A4201D1016921B1816A72
:103980009A421BD04AB10AE00268816A5268C2F3C7
:1039900008020A80816A891C08E0026972B1026823
:1039A000526802F07F020A70816A491C8162C18DEF
:1039B000491E0904090CC18503D01BE00268526846
:1039C000F1E70168CA6822F02002CA600168CA688B
:1039D00022F48072CA6001684A6922F001024A61D9
:1039E000202180F8421000214163026B012A03D09C
:1039F000FFF7D8FA002008BD016301680C3151E8D7
:103A0000002F22F0100241E80023002BF5D10168BD
:103A10000A68D20602D50A6849680091818DFFF7CD
:103A200017F9E7E770B5044600680169E26821F418
:103A30004051114301612169A0680843616908434D
:103A40002168CA6841F20C639A430243CA60206845
:103A50004169A26921F44071114341611E49206806
:103A6000884202D1FEF71AFF01E0FEF707FF00EBE4
:103A7000C00101EB0012606864218000B2FBF0F32A
:103A8000B3FBF1F36FF018067343B2FBF0F5B2FB32
:103A9000F0F605EB8305322303EB0515B5FBF1F5D5
:103AA000B6FBF1F605F0F00505EB0615B2FBF0F6F6
:103AB000B2FBF0F0B0FBF1F06FF01802504306EBF0
:103AC000800003EB0010B0FBF1F0216800F00F0064
:103AD0002844886070BD0000003801402DE9F8439B
:103AE000984617460D460446089E24E0701C22D0D6
:103AF000FEF76AFAA0EB0800B0421AD8CEB12068EF
:103B0000C168490717D5802D15D0402D13D0016805
:103B1000C94309070FD4016800254068009020467A
:103B2000FFF7F8FE0820606484F840500120BDE8EB
:103B3000F8830320FBE72068006835EA000004D022
:103B40000020B842D2D00020F1E70120F9E70000C0
:103B50000148FFF77FB80000E4000020FEE710B541
:103B600004000AD0607800F0ABF9A07800F0EEF91C
:103B7000E078BDE8104000F00FBA10BD0249002205
:103B800008780A7070470000040000200D4910B545
:103B90000D4A884201DD084602E0904200D91046F5
:103BA0000A4900F0E7FC4FF07C5110F1FF4F02D2C0
:103BB00000F06EFB01E000F0A9FD00F093FC00B204
:103BC00010BD0000C3D5A3430AD7A3C30000C84259
:103BD00000B50E498BB00020C1F80100087001212A
:103BE000CDE90601039005900090019002900891A4
:103BF000049069460648FDF765FE08B105A000E09F
:103C00000BA0FCF7F9FA0BB000BD00000400002087
:103C10006800002048414C5F43414E5F436F6E6631
:103C2000696746696C746572206661696C0D0A008B
:103C300048414C5F43414E5F436F6E66696746691A
:103C40006C746572206F6B0D0A00000030B58BB08C
:103C500056E001AB03AA00212E48FDF7BEFE40B19D
:103C60002C48FDF7A6FE01462BA0FCF7C5FA0BB0C9
:103C700030BD34A0079A0399FCF7BEFA002401ADC9
:103C800005E0295D3AA0FCF7B7FA641CE4B2079896
:103C9000A042F6D838A0FCF7AFFA059808B137A0D3
:103CA0002CE00398A0F58071013901D039A025E0FE
:103CB000079800282BD09DF804103C4801F0010221
:103CC00004460270C1F340024270C1F38002827068
:103CD000C1F3C001C1700091A3786278217834A04B
:103CE000FCF78AFA2046FFF73AFF3EA0FCF784FA79
:103CF000207828B1611E012008703FA0FCF77CFAF3
:103D000000210448FDF758FE0028A2D1AFE73FA0EC
:103D1000F4E700006800002048414C5F43414E5FDB
:103D200047657452784D6573736167652066616994
:103D30006C2C206572723D30782530386C580D0A35
:103D400000000000534C4156452043414E2052583C
:103D50003A2053746449643D30782530336C5820E0
:103D6000444C433D256420446174613D00000000E3
:103D700025303258200000000D0A000069676E6F80
:103D800072653A206E6F7420737464206672616D80
:103D9000650D0A0069676E6F72653A206964206E6E
:103DA0006F74206D617463680D0A000005000020C7
:103DB000636D642070617273653A207265713D2590
:103DC000642070756D703D25642076315F636C6F83
:103DD00073653D25642076325F636C6F73653D25A6
:103DE000640D0A006F757470757473206170706C67
:103DF0006965640D0A00000073656E642072657168
:103E000075657374207365740D0A000069676E6FC1
:103E100072653A20646C63203C20310D0A0000007A
:103E200030B5044689B00D461948FDF750FE68B319
:103E30002046FFF7ABFE04462846FFF7A7FE210AFF
:103E40008DF818108DF81940010A8DF81A108DF8A8
:103E50001B0040F28110009000200190042102908C
:103E6000CDE903018DF8140007AB06AA694608489E
:103E7000FDF7C0FC002807D00548FDF79AFD014674
:103E800004A0FCF7B9F9012009B030BD0220FBE71E
:103E9000680000205573657243414E5F53656E6440
:103EA00053656E736F7244617461206661696C2C36
:103EB000206572723D30782530386C580D0A00004C
:103EC00070B5104B104D4FF4004458B10122082139
:103ED0001846FEF773F8002221462846FEF76EF8D2
:103EE0000AA00AE0002208211846FEF767F800221F
:103EF00021462846FEF762F80CA0BDE87040FCF7AA
:103F00007BB90000000C014000080140536574506B
:103F1000756D703A2052554E20202D3E2050423370
:103F20003D3120504131353D300D0A00536574500C
:103F3000756D703A2053544F50202D3E205042331F
:103F40003D3020504131353D300D0A0010B50400A0
:103F500001D0012200E0002220210648FEF72EF8C1
:103F60000CB105A100E006A1BDE8104006A0FCF7D9
:103F700043B9000000080140434C4F534500000086
:103F80004F50454E0000000053657456616C7665D5
:103F9000313A2025730D0A0010B5040001D001222A
:103FA00000E0002240210648FEF708F80CB105A108
:103FB00000E006A1BDE8104006A0FCF71DB9000016
:103FC00000080140434C4F53450000004F50454E00
:103FD0000000000053657456616C7665323A202506
:103FE000730D0A0010B50748FDF74AFE20B106A080
:103FF000FCF702F9012010BD09A0FCF7FDF8002034
:1040000010BD00006800002048414C5F43414E5FF6
:104010005374617274206661696C0D0A00000000BF
:1040200048414C5F43414E5F5374617274206F6B23
:104030000D0A0000490050EAC12018BF04204A0DB3
:1040400018BF40F0010040F2FF72B2EB515F08BFB1
:1040500040F00200012808BF052070470907090E3B
:10406000002804DB00F1E02080F80014704700F025
:104070000F0000F1E02080F8141D704730380A2846
:1040800001D20120704700207047704738B50446C0
:104090008DF800004FF47A73012269460248FEF75A
:1040A00082FF204638BD0000E40000201CB5FEF76A
:1040B00049FAFFF7E6FBFFF723FAFFF7D7F9FFF717
:1040C000FBF9FFF771FAFFF78FFAFFF781FD21A0E7
:1040D000FCF792F80023244A24492548FFF732FBD5
:1040E0002348018923A0FCF787F8FFF771FDFFF74C
:1040F00079FF98B126A000BFFCF77EF81C4C0C3469
:10410000FFF7A4FDFFF73AFD0028F9D01849184839
:104110000C31FFF72DFB18B122A007E027A0EBE739
:10412000D4E90201FFF77CFE18B128A0FCF764F87F
:10413000E6E7E06800F080F805460E46A06800F06B
:104140007BF8CDE9005602460B4624A0FCF754F854
:10415000D6E7000073746D333220696E6974206491
:104160006F6E650D0A0000000000A0419000002065
:104170001C000020707265737375726520696E692A
:1041800074206F6B2C206B3D25640D0A000000002D
:1041900043414E207374617274206661696C0D0A2C
:1041A000000000007072657373757265207265613E
:1041B00064206661696C0D0A0000000043414E20D6
:1041C0007374617274206F6B0D0A000043414E20BE
:1041D00073656E64206661696C0D0A0043414E2070
:1041E00073656E643A20503D252E3466206B506115
:1041F0002C20543D252E326620430D0A000000007D
:1042000010B500290AD00878002807D0054878445E
:10421000FCF780FD002801D0002010BD0248784442
:1042200010BD0000E6070000DE0700000808A0F54A
:1042300000114FEA3101704743004FEAD30C4FEAB7
:104240003C0C43401FBF40070CF1605113F0FE4F80
:1042500070471CF0006F03D100200CF00041704744
:104260000CF0004343EA507010B540EACC0000F077
:1042700002FA00BF000000924FEA0001FFF7D6BF2C
:104280004FF000414FF00000A1F500217047000001
:1042900090EA010F48BF81F0004100F13E82421ACE
:1042A0003CBF801A89184FEAD0524FF07F4C1CEA6D
:1042B000410FA2EBD15318BF9CEA026F00F03B8084
:1042C0004FF0004C4CEA00204CEA012121FA03FC9B
:1042D00010EB0C0C1ED202F1FF325FEA1C2040EB07
:1042E000C25038BF70471CF07F0F4FEA400C18BF18
:1042F000BCF17F4F38BF7047C3F12003994008BF1E
:1043000020F00100BCF17F4F38BF7047A0F1C040E2
:1043100000F0F7B94FEA3C00000A40EBC25028BF5A
:104320001CF0FF0F4FEA400CE6D018BFBCF17F4FE6
:1043300038BF7047EAE79CEA026F05D010EA5C0FCD
:1043400008BF00F00040704710B500F094F900BFBE
:1043500064FBBE3E014800F050BA00BF0000C07FC1
:104360004FF47F0C1CEAD0121EBF1CEAD11392EA54
:104370000C0F93EA0C0F00F0858090EA010F48BF04
:1043800042F4807240F4000C41F400002CF07F41B4
:1043900020F07F4000B58142A2EB03020FF2081C1F
:1043A000ACEB504EC0F100009EF800E04FEA4E0E1C
:1043B00000FB0EFC38BF49004FEA2C1C02F5FA0244
:1043C0000CFB0EF34FEACE1E4FEA112C4FEAC1212F
:1043D0000EEB635E42EB22420EFB0CFC4FEA1C53D9
:1043E00000FB03114FEA112C4FEA01310EFB0CFCCC
:1043F0004FEADC4C00FB0C11C14228BF09184CEB02
:1044000003335DF804EB10EB410143EBC250B2F50E
:104410007C0F38BF704729D512F0F00F1CBF00F198
:10442000C04000F000407047008182838485868709
:1044300088898B8C8D8E8F919293959697999A9C63
:104440009D9FA0A2A3A5A7A8AAACAEB0B2B3B5B7D2
:10445000B9BCBEC0C2C5C7C9CCCED1D4D7D9DCDFA8
:10446000E2E6E9ECF0F3F7FAFE0000004FEA400C58
:104470000CF1807CBCF17E4F28BF7047B0F1C0408A
:1044800000F03FB990EA010F0CEAD11348BF42F4A3
:104490008072624538BF634507D213F47F0F16D090
:1044A00080EA010000F00040704710B500F0E3F82A
:1044B000097EFC3E00F005B880EA010000F00040F3
:1044C000704780EA010000F0004000F01AB912F4D1
:1044D0007F0F04BF0248704780EA010000F011B965
:1044E0000000C07F41000B0ED3F19E0208D950F4AA
:1044F00000034FEA032323FA02F048BF404270470B
:1045000010B500F0B8F800BF499224800020704731
:104510006FF0004282EA20007047000010F0004176
:1045200048BF4042B0FA80F310FA03F2C3F19D0392
:104530000BD051EAC35101EB1220530638BF70472C
:1045400000F1010008BF20F001007047B0FA80F3CD
:1045500010FA03F2C3F19D030AD0D90501EB122032
:10456000530638BF704700F1010008BF20F001007A
:10457000704700004FF47F0C1CEAD0121EBF1CEAEB
:10458000D11392EA0C0F93EA0C0F00F0478090EAE7
:10459000010F48BF42F480724FF0004C4CEA0020FB
:1045A0004CEA012102EB0302A0FB0113A2F5000279
:1045B000002918BF43F001035B0028BF4FEA330313
:1045C00042EB22425FEA132C4CEBC2502EBFBCEBF5
:1045D000436FB2F57C0F70474FEA036CBCF1004F9C
:1045E00008BF20F00100B2F57C0F38BF70470BD533
:1045F00082F0FF0212F5803FC8BF704700F1C04053
:10460000D8BF00F00040704700F5000C5FEA4C0C8A
:1046100048BF7047B0F1C04000F073B890EA010F96
:104620000CEAD11348BF42F48072624538BF63453B
:1046300004D280EA010000F00040704710B500F09D
:104640001AF800BF8900013E00F007B800F009B871
:104650005FEA410C5FEA1C6C08D080EA010000F0C0
:1046600050B85FEA400C5FEA1C6CF6D14FF0004096
:10467000A0F5800070470EF1020E2EF0030E5EF8DA
:10468000044B244204D44FEA4102B2F17F4F11D8C7
:104690004FEA4003B3F17F4F0CD80ED14FEAD07CE4
:1046A000B2F17F4F0CEB4C0C0CF1020C08BF4CEB41
:1046B000D17C04E04FF0080C01E04FEAD17C0CEB18
:1046C0004C0324FA03F404F00704B4F1040C06D2FA
:1046D0000EEB840CBDE810404CF0010C6047DFE8A5
:1046E0000CF0070802024FF00040A0F5800010BD5A
:1046F0000846420018BFD2F1807288BF00F0004027
:1047000010BDFF2141EAD050C005704790EA010F6B
:1047100048BF81F000413FF5C2AD421A04D882F093
:104720000042A0EB020011444FEAD0524FF07F4C00
:104730001CEA410FA2EBD15318BF9CEA026F4AD08A
:104740004FF0004C4CEA00204CEA012121FA03FC16
:10475000B0EB0C0C0FD412F0FE0F36D05FEA4C0019
:104760001DD5001240EBC25038BF70471CF03F0F00
:1047700018BF70470BE0A2F101025FEA1C2040EB7A
:10478000C25038BF70471CF07F0F18BF7047C3F18D
:104790002003994014BF401E20F00100704780089C
:1047A0004FEA122308BF7047B0FA80FCA2EB0C025C
:1047B000CCF1280C60FA0CF093EA122F04BF00EB46
:1047C000C25070474FEAC3707047130A5FEADC10AB
:1047D00008BF7047F6E79CEA026F04D010EA5C0F4E
:1047E00008BF0020704710B5FFF745FF40DFF63ED9
:1047F00081F000407047FBF7E4BF0CF00F03092B7A
:1048000008BF082000F051800A2B0BD0082B18BFDE
:10481000704708BF1CF0400F0AD04FF000004FF067
:10482000000170471CF0400F18BF4FF00040704768
:104830001CF0100F08D020F0704300F07F4242EAD5
:10484000D3014FEA4370704700F0604021F07F428F
:1048500042EA000201F07F4040EA727070474FF078
:10486000FF0212EAD0521CBF92F0FF038B42C2BF7C
:10487000D14200EBC1507047002A0AD0002B0BD068
:10488000002900F00040A4BF40F0FE4040F40000CA
:10489000704700F00040704743024FF00B0C18BF08
:1048A0004CF0806C7FF456AD70471CF4801F11D023
:1048B0001CF4E02F03D06FEACC31490070474FF071
:1048C0004050EFF3008222F0704242EA000282F38D
:1048D000008870474FF00000704701020203040592
:1048E000060708090A0B0C0D0E0F1010000000003F
:1048F0000000000001020304060708090000000090
:10490000010203043031323334353637383941420D
:104910004344454640305800303132333435363721
:1049200038396162636465664030780004000008CD
:104930000000000000000002000100001000000064
:1049400002400000000000A0000000000540000040
:10495000000000C8000000000C4000000000409C67
:1049600000000000194000000020BCBE0000000054
:1049700034400000BFC91B8E00000004B540000099
:10498000504BCFD06607E2CF010000006C41000021
:104990003E8251AADFEEA73401000000D942000098
:1049A000DCB5A0E23A301F97FFFFFFFFB4450000DF
:1049B000FD25A0C8E9A3C14FFFFFFFFFFF3F000097
:1049C0000000008000000000FF3F000000000080A9
:1049D00000000000104A0008000000201C00000039
:1049E000280100082C4A00081C0000207407000061
:1049F000440100081C00000043000000F8FFFFFF16
:104A00000C0000000E0000000F0000002E0000004F
:104A10000000000000000000000000000100000095
:0C4A2000100000000000000000127A00EE
:04000005080000ED02
:00000001FF
